{
  "contractName": "Auction",
  "abi": [
    {
      "inputs": [],
      "stateMutability": "nonpayable",
      "type": "constructor"
    },
    {
      "inputs": [],
      "name": "putBid",
      "outputs": [],
      "stateMutability": "payable",
      "type": "function",
      "payable": true
    },
    {
      "inputs": [
        {
          "internalType": "address",
          "name": "_address",
          "type": "address"
        }
      ],
      "name": "getBidderBid",
      "outputs": [
        {
          "internalType": "uint256",
          "name": "",
          "type": "uint256"
        }
      ],
      "stateMutability": "view",
      "type": "function",
      "constant": true
    },
    {
      "inputs": [],
      "name": "HighestBid",
      "outputs": [
        {
          "internalType": "uint256",
          "name": "",
          "type": "uint256"
        }
      ],
      "stateMutability": "view",
      "type": "function",
      "constant": true
    },
    {
      "inputs": [],
      "name": "HighestBidder",
      "outputs": [
        {
          "internalType": "address",
          "name": "",
          "type": "address"
        }
      ],
      "stateMutability": "view",
      "type": "function",
      "constant": true
    },
    {
      "inputs": [
        {
          "internalType": "uint256",
          "name": "_endTime",
          "type": "uint256"
        }
      ],
      "name": "putEndTime",
      "outputs": [],
      "stateMutability": "nonpayable",
      "type": "function"
    },
    {
      "inputs": [],
      "name": "endAuction",
      "outputs": [],
      "stateMutability": "nonpayable",
      "type": "function"
    }
  ],
  "bytecode": "0x6080604052426003556000600560146101000a81548160ff02191690831515021790555034801561002f57600080fd5b5033600560006101000a81548173ffffffffffffffffffffffffffffffffffffffff021916908373ffffffffffffffffffffffffffffffffffffffff16021790555061050e806100806000396000f3fe6080604052600436106100555760003560e01c8063167fb50e1461005a5780637f6a9d5014610085578063996657af146100ae578063e71ba2bd146100d9578063f5cc772a14610116578063fe67a54b14610120575b600080fd5b34801561006657600080fd5b5061006f610137565b60405161007c9190610325565b60405180910390f35b34801561009157600080fd5b506100ac60048036038101906100a79190610371565b610141565b005b3480156100ba57600080fd5b506100c361014b565b6040516100d091906103df565b60405180910390f35b3480156100e557600080fd5b5061010060048036038101906100fb9190610426565b610175565b60405161010d9190610325565b60405180910390f35b61011e6101bd565b005b34801561012c57600080fd5b50610135610299565b005b6000600154905090565b8060048190555050565b6000600260009054906101000a900473ffffffffffffffffffffffffffffffffffffffff16905090565b60008060008373ffffffffffffffffffffffffffffffffffffffff1673ffffffffffffffffffffffffffffffffffffffff168152602001908152602001600020549050919050565b6000346000803373ffffffffffffffffffffffffffffffffffffffff1673ffffffffffffffffffffffffffffffffffffffff168152602001908152602001600020546102099190610482565b9050806000803373ffffffffffffffffffffffffffffffffffffffff1673ffffffffffffffffffffffffffffffffffffffff168152602001908152602001600020819055508060018190555033600260006101000a81548173ffffffffffffffffffffffffffffffffffffffff021916908373ffffffffffffffffffffffffffffffffffffffff16021790555050565b600560009054906101000a900473ffffffffffffffffffffffffffffffffffffffff1673ffffffffffffffffffffffffffffffffffffffff163373ffffffffffffffffffffffffffffffffffffffff160361030a576001600560146101000a81548160ff0219169083151502179055505b565b6000819050919050565b61031f8161030c565b82525050565b600060208201905061033a6000830184610316565b92915050565b600080fd5b61034e8161030c565b811461035957600080fd5b50565b60008135905061036b81610345565b92915050565b60006020828403121561038757610386610340565b5b60006103958482850161035c565b91505092915050565b600073ffffffffffffffffffffffffffffffffffffffff82169050919050565b60006103c98261039e565b9050919050565b6103d9816103be565b82525050565b60006020820190506103f460008301846103d0565b92915050565b610403816103be565b811461040e57600080fd5b50565b600081359050610420816103fa565b92915050565b60006020828403121561043c5761043b610340565b5b600061044a84828501610411565b91505092915050565b7f4e487b7100000000000000000000000000000000000000000000000000000000600052601160045260246000fd5b600061048d8261030c565b91506104988361030c565b9250827fffffffffffffffffffffffffffffffffffffffffffffffffffffffffffffffff038211156104cd576104cc610453565b5b82820190509291505056fea26469706673582212206f81c7c25b8c5b985980c4d3b847ced4c82154def30e4f6e86b33e5099f887b464736f6c634300080f0033",
  "immutableReferences": {},
  "source": "// SPDX-License-Identifier: GPL-3.0\r\n\r\npragma solidity >0.4.0 <0.9.0;\r\n\r\n\r\ncontract Auction {\r\n    mapping(address => uint) biddersData;\r\n    uint highestBidAmount;\r\n    address highestBidder;\r\n    uint startTime = block.timestamp;\r\n    uint endTime;\r\n    address owner;\r\n    bool auctionEnded = false;\r\n    constructor(){\r\n        owner = msg.sender;\r\n    }\r\n    // put new bid\r\n    function putBid() public payable {\r\n        //verify value is not zero\r\n        uint calculateAmount = biddersData[msg.sender] + msg.value;\r\n        // check session not ended\r\n        //        require(auctionEnded==true,\"Aunction is Endded\");\r\n        //        require(block.timestamp<=endTime,\"Aunction is Endded\");\r\n        //        require(msg.value>0,\"Bid Amo unt Cannot Be Zero\");\r\n        //\r\n        //        //check Highest Bid\r\n        //        require(calculateAmount>highestBidAmount,\"Highest Bid Already Present\");\r\n        biddersData[msg.sender] = calculateAmount;\r\n        highestBidAmount = calculateAmount;\r\n        highestBidder = msg.sender;\r\n\r\n    }\r\n\r\n    // get Contract Balance (Only for testing)\r\n    function getBidderBid(address _address) public view returns (uint){\r\n        return biddersData[_address];\r\n    }\r\n    // get Highest BidAmount\r\n    function HighestBid() public view returns (uint){\r\n        return highestBidAmount;\r\n    }\r\n\r\n    // get Highest Bidder Address\r\n    function HighestBidder() public view returns (address){\r\n        return highestBidder;\r\n    }\r\n\r\n    // put endTime\r\n    function putEndTime(uint _endTime) public {\r\n        endTime = _endTime;\r\n    }\r\n\r\n\r\n    // put endTime\r\n    function endAuction() public {\r\n        if (msg.sender == owner) {\r\n            auctionEnded = true;\r\n        }\r\n    }\r\n}\r\n",
  "sourcePath": "D:\\Java\\Blockchain\\dapp\\contracts\\Auction.sol",
  "compiler": {
    "name": "solc",
    "version": "0.8.15+commit.e14f2714.Emscripten.clang"
  },
  "schemaVersion": "3.4.8",
  "updatedAt": "2022-08-04T11:08:23.612Z",
  "networkType": "ethereum",
  "devdoc": {
    "kind": "dev",
    "methods": {},
    "version": 1
  },
  "userdoc": {
    "kind": "user",
    "methods": {},
    "version": 1
  }
}